:020000040000FA
:060000000A128A110C280F
:10000800FE00030EF0000A08F1000A128A15622C9D
:100018000A128A110F28FA01FB0183010A128A15B4
:10002800452E8312031328088039B2002808AD0032
:100038002D07B800A71F212822282328381438089C
:100048000319272828283728380A031D2C282D2883
:1000580035280030A8000030A7000030A600003086
:10006800A500A7173F280030A8000030A7000030DF
:10007800A6000030A5002C088039FF007F08B206D2
:100088002C08AD002D07B300AB1F4B284C284D287A
:10009800331433080319512852286128330A031DE1
:1000A800562857285F280030AC000030AB000030DD
:1000B800AA000030A900AB1769280030AC00003056
:1000C800AB000030AA000030A900330803196D28DE
:1000D8006E2873283808031D722873287C2800307E
:1000E800A8000030A7000030A6000030A500592B5A
:1000F8002508F2002B080A128A15BE240A128A1152
:10010800730883120313BE007208BD003D08AD00DA
:10011800AE01AF01B0013008B7002F08B6002E08B5
:10012800B5002D08B4003E08AD00AE01AF01B00126
:100138003008BC002F08BB002E08BA002D08B900F3
:100148002608F2002A080A128A15BE240A128A1101
:10015800730883120313BE007208BD003D08AD008A
:10016800AE01AF01B0012D08B4072E080311031822
:10017800013E0319C028B5072F0803110318013ED3
:100188000319C728B607300803110318013E0319DD
:10019800CE28B7073E08AD00AE01AF01B0012D086B
:1001A800B9072E0803110318013E0319DC28BA0702
:1001B8002F0803110318013E0319E328BB07300871
:1001C80003110318013E0319EA28BC072708F200A7
:1001D80029080A128A15BE240A128A117308831282
:1001E8000313BE007208BD003D08AD00AE01AF01AB
:1001F800B0012D08B4072E0803110318013E031996
:100208000629B5072F0803110318013E03190D2904
:10021800B607300803110318013E03191429B7075C
:100228003E08AD00AE01AF01B0012D08B9072E0898
:1002380003110318013E03192229BA072F080311D5
:100248000318013E03192929BB07300803110318B5
:10025800013E03193029BC070830AD000310B40D66
:10026800B50DB60DB70DAD0B32292608F2002908D9
:100278000A128A15BE240A128A11730883120313FC
:10028800BE007208BD003D08AD003E08AE00AF01DB
:10029800B0012D08B4072E0803110318013E0319F5
:1002A8005629B5072F0803110318013E03195D29C4
:1002B800B607300803110318013E03196429B7076C
:1002C8002508F2002A080A128A15BE240A128A1181
:1002D800730883120313BE007208BD003D08AD0009
:1002E8003E08AE00AF01B0012D08B4072E08031177
:1002F8000318013E03198129B5072F0803110318B4
:10030800013E03198829B607300803110318013E76
:1003180003198F29B7070830AD000310B40DB50DC8
:10032800B60DB70DAD0B91292508F20029080A1260
:100338008A15BE240A128A11730883120313BE0099
:100348007208BD003D08AD003E08AE00AF01B00127
:100358002D08B4072E0803110318013E0319B52907
:10036800B5072F0803110318013E0319BC29B60766
:10037800300803110318013E0319C329B7072608DB
:10038800F2002B080A128A15BE240A128A11730871
:1003980083120313BE007208BD003D08AD003E087D
:1003A800AE00AF01B0012D08B9072E0803110318DC
:1003B800013E0319E029BA072F0803110318013E6B
:1003C8000319E729BB07300803110318013E031975
:1003D800EE29BC072708F2002A080A128A15BE244B
:1003E8000A128A11730883120313BE007208BD0033
:1003F8003D08AD003E08AE00AF01B0012D08B907B9
:100408002E0803110318013E03190B2ABA072F08F7
:1004180003110318013E0319122ABB073008031100
:100428000318013E0319192ABC072708F2002B08F4
:100438000A128A15BE240A128A117308831203133A
:10044800BE007208BD003D08AD003E08AE00AF0119
:10045800B00108300310AD0DAE0DAF0DB00DFF3E6D
:10046800031D2E2A2D08B9072E0803110318013E73
:1004780003193F2ABA072F0803110318013E03196D
:10048800462ABB07300803110318013E03194D2AF9
:10049800BC073408AD003508AE003608AF00370891
:1004A800B00018300310B00CAF0CAE0CAD0CFF3E12
:1004B800031D562A2D08B9072E0803110318013EFB
:1004C8000319672ABA072F0803110318013E0319F5
:1004D8006E2ABB07300803110318013E0319752A59
:1004E800BC070830AD000310B40DB50DB60DB70D3F
:1004F800AD0B772A38083307AD00AE01AE0D2D08D5
:10050800823EBD002E080318013EFF3EBE00A92A08
:100518000130AD000310B90DBA0DBB0DBC0DAD0B0C
:100528008E2AB71F982A992A9A2A39140130AD00C1
:100538000310B40DB50DB60DB70DAD0B9C2AFF30E9
:10054800BD070318BE0AFF30BE07BB1FAC2AAD2A81
:100558008C2AB301B71FB12AB22ACE2AFF3034053C
:10056800AD00FF303505AE00FF303605AF007F30F7
:100578003705B00030082F042E042D040319C52AAE
:10058800C62AC92AB301B30ACE2A391CCC2ACD2AD5
:10059800CE2AC62A33080319D22AD32A042B0130BB
:1005A800B907003003180130BA07003003180130CA
:1005B800BB07003003180130BC073C1CE42AE52ABD
:1005C800042B3908AD003A08AE003B08AF003C08E0
:1005D800B0000130B100300DB00CAF0CAE0CAD0C5A
:1005E800B10BEF2A3008BC002F08BB002E08BA0058
:1005F8002D08B9000130BD070318BE0A0030BE0738
:100608003E08803AFF0080307F02031D0D2BFF302B
:100618003D02031C102B112B1C2B7F30831203135C
:10062800BC008030BB000030BA000030B9004D2B50
:10063800831203133E08803AFF0080307F02031DB7
:10064800272B01303D0203182A2B2B2B372B003088
:1006580083120313BC000030BB000030BA00003026
:10066800B900B2014D2B831203133D08B800FF30C7
:10067800B905FF30BA057F30BB050030BC05381C12
:10068800462B472B482BBB173808AD0003102D0C01
:10069800BC003208FF007F08BC043C08A8003B08E7
:1006A800A7003A08A6003908A5000800750880398F
:1006B80083120313A8007508A0002007AA00F41FDE
:1006C800662B672B682B2A142A0803196C2B6D2BB1
:1006D8007D2B2A0A031D712B722B7A2B0030F50013
:1006E8000030F4000030F3000030F200F417F50198
:1006F800852B0030F5000030F4000030F3000030A6
:10070800F20079088039A9002908280603198D2BD9
:100718008E2B8F2B28177908A0002007A900F81F17
:10072800962B972B982B2914290803199C2B9D2B62
:10073800AD2B290A031DA12BA22BAA2B0030F900EF
:100748000030F8000030F7000030F600F817F90123
:10075800B52B0030F9000030F8000030F700003009
:10076800F6002A0829020318BA2BBB2BE12B281FF5
:10077800BE2BBF2BC32B8030FF007F08A8062A089A
:10078800AB002908AA002B08A9007208AB0076085C
:10079800F2002B08F6007308AB007708F3002B086B
:1007A800F7007408AB007808F4002B08F800750807
:1007B800AB007908F5002B08F900AB012908A00067
:1007C800A1012108A3002A082002A200031CA303F8
:1007D8002308803AFF0080307F02031DF52B1A3072
:1007E8002202031CF82BF92B302C750874047304AF
:1007F8007204031D002C022C0130032C00308312DC
:100808000313AB000030F5000030F4000030F300B3
:100818000030F2002908AA00382C2B1C142C152CA7
:100828001C2C2B08A0000310200C0138AB001E2C38
:100838000310AB0C721C212C222C232CAB1701307B
:10084800A000750DF50CF40CF30CF20CA00B252C84
:100858000130FF007F08AA078312031329082A0220
:10086800031C372C382C112C281B3B2C3C2C852C9A
:100878002A08031D402C412C4A2C0030F50000307A
:10088800F4000030F3000030F200B12D7608F207D2
:10089800770803110318013E0319532CF30778084E
:1008A80003110318013E03195A2CF40779080311A0
:1008B8000318013E0319612CF507751C642C652C7F
:1008C800392D2B1C682C692C702C2B08A0000310C8
:1008D800200C0138AB00722C0310AB0C721C752C69
:1008E800762C772CAB170130A000750DF50CF40CA5
:1008F800F30CF20CA00B792C0130FF007F08AA073B
:10090800392D7508803AFF007908803A7F02031D67
:10091800972C78087402031D972C77087302031D1F
:10092800972C7608720203189A2C9B2CF32CFF3014
:10093800A000FF30A100FF30A200FF30A30076081E
:10094800A4007708A5007808A6007908A70072080F
:10095800A4027308031C730FB22CB32CA5027408ED
:10096800031C740FB82CB92CA6027508031C750F4C
:10097800BE2CBF2CA7022408A00725080318250FA2
:10098800C62CC72CA10726080318260FCC2CCD2C63
:10099800A20727080318270AA3072308F500220837
:1009A800F4002108F3002008F2008030FF007F08DF
:1009B800A806AB09AB0A2B08031DE32CE42C012D78
:1009C8000130F207003003180130F3070030031834
:1009D8000130F407003003180130F507012D7608BF
:1009E800F2027708031C770FF3027808031C780FCC
:1009F800F4027908031C790FF5027508740473046E
:100A08007204031D082D092D352D2B08031D0D2DEE
:100A18000E2D352D0030F5000030F4000030F300C5
:100A28000030F200B12D0130A0000310F20DF30DDB
:100A3800F40DF50DA00B192DAB1F232D242D252DFD
:100A480072142B1C282D292D2C2D0314AB0D2E2DA3
:100A58000310AB0D2A080319322D332D352D013023
:100A6800AA02F41F382D392D172DA901AB1F3D2DD2
:100A78003E2D4C2D2B087F390319432D442D472D2E
:100A8800A901A90A4C2D721C4A2D4B2D4C2D442D21
:100A980029080319502D512D852D0130F2070030FA
:100AA80003180130F307003003180130F407003051
:100AB80003180130F507751C622D632D852D72080A
:100AC800A0007308A1007408A2007508A3000130F3
:100AD800A400230DA30CA20CA10CA00CA40B6D2D3B
:100AE8002308F5002208F4002108F3002008F2008A
:100AF8002A0A0319802D812D852D0130FF007F08DA
:100B0800AA072A0A0319892D8A2D8F2D2A08031D61
:100B18008E2D8F2D9D2D0030F5000030F400003013
:100B2800F3000030F2002A08031D9B2D9C2D9D2DFB
:100B3800A8012A1CA02DA12DA32DF417A72D7F30C5
:100B4800FF007F08F4052A08A0000310200CF50018
:100B5800A81FAF2DB02DB12DF51708008312031370
:100B680046088039D0004608C7004707D700C51F88
:100B7800BE2DBF2DC02D571457080319C42DC52DE0
:100B8800D52D570A031DC92DCA2DD22D0030C600F8
:100B98000030C5000030C4000030C300C517C601CE
:100BA800DD2D0030C6000030C5000030C400003024
:100BB800C30042088039FF007F08D0064208C700FA
:100BC8004707D800C11FE92DEA2DEB2D5814580806
:100BD8000319EF2DF02D002E580A031DF42DF52DC5
:100BE800FD2D0030C2000030C1000030C0000030D0
:100BF800BF00C117C201082E0030C2000030C1007A
:100C08000030C0000030BF004208410440043F04E7
:100C1800031D0F2E102E292E0030C6000030C500EF
:100C28000030C4000030C3008030C5047F30C604E3
:100C38005008FF007F08C6044608C2004508C100E6
:100C48004408C0004308BF00802F5708031D2D2EFD
:100C58002E2E372E0030C2000030C1000030C000F8
:100C68000030BF00802F5708C700C8014808CA00D5
:100C780058084702C900031CCA0349087F3ED1002F
:100C88004A080318013E003ED2004608CF00450836
:100C9800CE004408CD004308CC000030C600003028
:100CA800C5000030C4000030C3000030D60000305A
:100CB800D5000030D4000030D300D801AD2E58083C
:100CC8000319672E682E882E0130C7000310CC0D3B
:100CD800CD0DCE0DCF0DC70B6A2E0130C700031006
:100CE800C30DC40DC50DC60DC70B732ED61F7D2EA3
:100CF8007E2E7F2E43140130C7000310D30DD40D70
:100D0800D50DD60DC70B812E42084F02031D962E16
:100D180041084E02031D962E40084D02031D962ED3
:100D28003F084C02031C992E9A2EA92E56173F08ED
:100D3800CC024008031C400FCD024108031C410FA0
:100D4800CE024208031C420FCF020130FF007F0889
:100D5800D8071A305802031CB22EB32E632E4F0840
:100D68004E044D044C040319BA2EBB2EDA2E53142C
:100D7800DA2E0130C7000310C30DC40DC50DC60D12
:100D8800C70BBF2ED61FC92ECA2ECB2E4314013037
:100D9800C7000310D30DD40DD50DD60DC70BCD2E1E
:100DA800FF30D1070318D20AFF30D207C51FDD2E46
:100DB800DE2EBD2ED801D61FE22EE32EFF2EFF30E9
:100DC8005305C700FF305405C800FF305505C9005A
:100DD8007F305605CA004A084904480447040319E5
:100DE800F62EF72EFA2ED801D80AFF2E431CFD2E18
:100DF800FE2EFF2EF72E58080319032F042F352F28
:100E08000130C307003003180130C407003003184D
:100E18000130C507003003180130C607461C152FDE
:100E2800162F352F4308C7004408C8004508C900D5
:100E38004608CA000130CB004A0DCA0CC90CC80CC0
:100E4800C70CCB0B202F4A08C6004908C500480824
:100E5800C4004708C3000130D1070318D20A003084
:100E6800D2075208803AFF0080307F02031D3E2FD0
:100E7800FF305102031C412F422F502FFF308312A5
:100E88000313D1000030D2000030C6000030C50086
:100E98000030C4000030C300831203135208803AA4
:100EA800FF0080307F02031D5B2F013051020318C1
:100EB8005E2F5F2F6C2F83120313D101D2010030F4
:100EC800C6000030C5000030C4000030C300D001A7
:100ED800831203135108D700571C732F742F762FD2
:100EE800C5177A2F7F30FF007F08C5055708C70050
:100EF8000310470CC6001C2E080040308312031351
:100F0800A800A030A7000030A6000030A5005C08AB
:100F1800AC005B08AB005A08AA005908A9000A12DD
:100F28008A1115200A128A11831203132808E40073
:100F38002708E3002608E2002508E1004430C20043
:100F48007F30C100C030C0000030BF004230A80070
:100F5800C830A7000030A6000030A5006408AC0027
:100F68006308AB006208AA006108A9000A128A1186
:100F780015200A128A11831203132808C6002708AD
:100F8800C5002608C4002508C3000A128A11B22524
:100F98000A128A11831203134208E0004108DF0095
:100FA8004008DE003F08DD006008DC005F08DB0069
:100FB8005E08DA005D08D9000800831203130708E9
:100FC800031DE72FE82FF52F093087000608031DBA
:100FD800EE2FEF2FF22F09308600F72F013086020F
:100FE800F72F013087020A128A1558240A128A112B
:020FF8000800EF
:1018A000831203138613080083120313861708009C
:1018B0008230F300DD30F200F20B5C2CF30B5C2C79
:1018C000612C0800831203130C1F672C682C732CE7
:1018D0000C131E08FB00831603131E08FA007A0877
:1018E00083120313860071088A00700E8300FE0EB7
:1018F0007E0E09000930831203130706031D812C95
:10190000822C902C870109300606031D882C892C17
:101910008B2C8601942C0130FF007F088607942CC5
:101920000130FF007F0887070A128A1558240A121F
:101930008A150800803083120313AF063308F500C0
:101940003208F4003108F3003008F2002F08F900E3
:101950002E08F8002D08F7002C08F6000A128A114C
:101960005A230A128A15750883120313AF007408EC
:10197000AE007308AD007208AC00080083120313B8
:10198000A400A001A1017208F400F5017408A200EE
:101990007508A300241CCD2CCE2CD42C2208A00723
:1019A0000318A10A2308A10701300310A20DA30DFB
:1019B000FF3E031DD52C0310A40C2408031DE12CAD
:1019C000E22CCA2C2108F3002008F20008000030A5
:1019D000720583120313A00000307305A10080304C
:1019E0007405A2007F307505A3002308220421049A
:1019F0002004031DFC2CFD2C052D0030F5000030CB
:101A0000F4000030F3000030F20000307605A00052
:101A100000307705A10080307805A2007F3079057D
:101A2000A3002308220421042004031D182D192DCE
:101A3000212D0030F9000030F8000030F7000030B0
:101A4000F600F51F242D252D492D0030A000003073
:101A5000A1000030A2008030A3007208A002730829
:101A6000031C730F342D352DA1027408031C740F51
:101A70003A2D3B2DA2027508031C750F402D412DF8
:101A8000A3022308F5002208F4002108F30020082F
:101A9000F200F91F4C2D4D2D712D0030A0000030AB
:101AA000A1000030A2008030A3007608A0027708D1
:101AB000031C770F5C2D5D2DA1027808031C780FA5
:101AC000622D632DA2027908031C790F682D692D00
:101AD000A3022308F9002208F8002108F7002008D3
:101AE000F6008030F5068030F90679087502031D8E
:101AF000832D78087402031D832D77087302031D5C
:101B0000832D760872020318862D872D892D0310E8
:101B10008A2D0314080083120313A0002008031960
:101B2000922D932DA72DF51F962D972DA72D720978
:101B3000A2007309A3007409A4007509A500A20AF4
:101B40000319A30A0319A40A0319A50AAF2D7508DE
:101B5000A5007408A4007308A3007208A200750809
:101B6000740473047204031DB62DB72DC02D00300C
:101B7000F5000030F4000030F3000030F200442E95
:101B80009630A100D02D0130FF007F08A107013061
:101B90000310A50CA40CA30CA20CFF3E031DC82D22
:101BA000FE302505031DD52DD62DC32DF22D013078
:101BB000FF007F08A1070130A207003003180130A1
:101BC000A307003003180130A407003003180130C8
:101BD000A50701300310A50CA40CA30CA20CFF3E1A
:101BE000031DEA2DFF302505031DF72DF82DD72DF8
:101BF000042E0130A1020130F6000310A20DA30D46
:101C0000A40DA50DF60BFD2DA41B072E082E0E2EE0
:101C10000230210203180D2E0E2EF92D2118112E3F
:101C2000122E1A2EFF30A205FF30A3057F30A40527
:101C3000FF30A5050310A10C2108F600F701F801FB
:101C4000F90118300310F60DF70DF80DF90DFF3EF0
:101C5000031D222E7608A2047708A3047808A404A2
:101C60007908A50420080319362E372E3C2EF51FBF
:101C70003A2E3B2E3C2EA5172508F5002408F4002B
:101C80002308F3002208F20008008B170B178316B5
:101C900003130C1786018701FF30850081131F1085
:101CA0009F141F159F15C730831203139F051F1321
:101CB0009F13831603139F139E01831203139E0128
:101CC0001F14871186011F149F111F129F12870175
:101CD00086018316031386131F149F10813083120D
:101CE00003139F00831603139F01831203139F1195
:101CF0001F16003083160313AF000030AE00003013
:101D0000AD000030AC00053083120313E500E50B95
:101D1000872E8A2E831203131F151E08E500E60185
:101D2000E701E8016808F5006708F4006608F300B9
:101D30006508F20000300A128A158B250A128A15EE
:101D4000750883160313A7007408A6007308A5007E
:101D50007208A400270883120313DC008316031300
:101D6000260883120313DB0083160313250883124E
:101D70000313DA0083160313240883120313D90014
:101D80000A128A1181270A128A15831203135C082A
:101D900083160313AB00831203135B08831603132C
:101DA000AA00831203135A0883160313A90083128F
:101DB0000313590883160313A8008312031308188A
:101DC000E22EE32E092F0A128A157A240A128A15A6
:101DD0003F30F5008030F4000030F3000030F200B6
:101DE000831603132F08F9002E08F8002D08F700BA
:101DF0002C08F6000A128A115A230A128A1575084D
:101E000083160313AF007408AE007308AD007208A8
:101E1000AC00831288180D2F0E2F522F0A128A1130
:101E2000E1270A128A153F3083120313AF00803076
:101E3000AE000030AD000030AC00831603132F0855
:101E400083120313B300831603132E0883120313A4
:101E5000B200831603132D0883120313B1008316F7
:101E600003132C0883120313B0000A128A159A2454
:101E70000A128A15831203132F0883160313AF0067
:101E8000831203132E0883160313AE008312031369
:101E90002D0883160313AD00831203132C08831639
:101EA0000313AC0083120819562F572F8A2E83165E
:101EB00003132F08A3002E08A2002D08A1002C0850
:101EC000A0002B08F5002A08F4002908F3002808D0
:101ED000F2002308F9002208F8002108F700200882
:101EE000F6000A128A15E7240A128A150318792FB8
:101EF0007A2FF72FDC2F0A128A1554240A128A151A
:101F00000A128A1558240A128A15831203131E080E
:101F1000E500E601E701E8016808F5006708F4005C
:101F20006608F3006508F20000300A128A158B2556
:101F30000A128A15750883160313A7007408A600F1
:101F40007308A5007208A400270883120313DC009D
:101F500083160313260883120313DB00831603136F
:101F6000250883120313DA0083160313240883124F
:101F70000313D9000A128A1181270A128A158312C3
:101F800003135C0883160313AB00831203135B086F
:101F900083160313AA00831203135A08831603132C
:101FA000A90083120313590883160313A8000A1209
:101FB0008A1558240A128A15831603132B08F50074
:101FC0002A08F4002908F3002808F2002308F90081
:101FD0002208F8002108F7002008F6000A128A15E6
:101FE000E7240A128A15031CF62FF72F7B2F0A12FB
:101FF0008A1550240A128A158A2E0A128A110C2870
:02400E00393F38
:00000001FF
